{
	"schemaVersion": "2.0.0",
	"contractName": "SimpleStorage",
	"compilerOutput": {
		"abi": [
			{
				"constant": true,
				"inputs": [],
				"name": "storedData",
				"outputs": [
					{
						"name": "",
						"type": "uint256"
					}
				],
				"payable": false,
				"stateMutability": "view",
				"type": "function"
			},
			{
				"constant": false,
				"inputs": [
					{
						"name": "x",
						"type": "uint256"
					}
				],
				"name": "set",
				"outputs": [],
				"payable": false,
				"stateMutability": "nonpayable",
				"type": "function"
			},
			{
				"constant": true,
				"inputs": [],
				"name": "get",
				"outputs": [
					{
						"name": "retVal",
						"type": "uint256"
					}
				],
				"payable": false,
				"stateMutability": "view",
				"type": "function"
			}
		],
		"devdoc": {
			"methods": {}
		},
		"evm": {
			"bytecode": {
				"linkReferences": {},
				"object": "0x608060405234801561001057600080fd5b50610117806100206000396000f3006080604052600436106053576000357c0100000000000000000000000000000000000000000000000000000000900463ffffffff1680632a1afcd914605857806360fe47b11460805780636d4ce63c1460aa575b600080fd5b348015606357600080fd5b50606a60d2565b6040518082815260200191505060405180910390f35b348015608b57600080fd5b5060a86004803603810190808035906020019092919050505060d8565b005b34801560b557600080fd5b5060bc60e2565b6040518082815260200191505060405180910390f35b60005481565b8060008190555050565b600080549050905600a165627a7a7230582091989d52fb4382049034c2c857446bce5279872f87dc866825490134aa6778220029",
				"opcodes": "PUSH1 0x80 PUSH1 0x40 MSTORE CALLVALUE DUP1 ISZERO PUSH2 0x10 JUMPI PUSH1 0x0 DUP1 REVERT JUMPDEST POP PUSH2 0x117 DUP1 PUSH2 0x20 PUSH1 0x0 CODECOPY PUSH1 0x0 RETURN STOP PUSH1 0x80 PUSH1 0x40 MSTORE PUSH1 0x4 CALLDATASIZE LT PUSH1 0x53 JUMPI PUSH1 0x0 CALLDATALOAD PUSH29 0x100000000000000000000000000000000000000000000000000000000 SWAP1 DIV PUSH4 0xFFFFFFFF AND DUP1 PUSH4 0x2A1AFCD9 EQ PUSH1 0x58 JUMPI DUP1 PUSH4 0x60FE47B1 EQ PUSH1 0x80 JUMPI DUP1 PUSH4 0x6D4CE63C EQ PUSH1 0xAA JUMPI JUMPDEST PUSH1 0x0 DUP1 REVERT JUMPDEST CALLVALUE DUP1 ISZERO PUSH1 0x63 JUMPI PUSH1 0x0 DUP1 REVERT JUMPDEST POP PUSH1 0x6A PUSH1 0xD2 JUMP JUMPDEST PUSH1 0x40 MLOAD DUP1 DUP3 DUP2 MSTORE PUSH1 0x20 ADD SWAP2 POP POP PUSH1 0x40 MLOAD DUP1 SWAP2 SUB SWAP1 RETURN JUMPDEST CALLVALUE DUP1 ISZERO PUSH1 0x8B JUMPI PUSH1 0x0 DUP1 REVERT JUMPDEST POP PUSH1 0xA8 PUSH1 0x4 DUP1 CALLDATASIZE SUB DUP2 ADD SWAP1 DUP1 DUP1 CALLDATALOAD SWAP1 PUSH1 0x20 ADD SWAP1 SWAP3 SWAP2 SWAP1 POP POP POP PUSH1 0xD8 JUMP JUMPDEST STOP JUMPDEST CALLVALUE DUP1 ISZERO PUSH1 0xB5 JUMPI PUSH1 0x0 DUP1 REVERT JUMPDEST POP PUSH1 0xBC PUSH1 0xE2 JUMP JUMPDEST PUSH1 0x40 MLOAD DUP1 DUP3 DUP2 MSTORE PUSH1 0x20 ADD SWAP2 POP POP PUSH1 0x40 MLOAD DUP1 SWAP2 SUB SWAP1 RETURN JUMPDEST PUSH1 0x0 SLOAD DUP2 JUMP JUMPDEST DUP1 PUSH1 0x0 DUP2 SWAP1 SSTORE POP POP JUMP JUMPDEST PUSH1 0x0 DUP1 SLOAD SWAP1 POP SWAP1 JUMP STOP LOG1 PUSH6 0x627A7A723058 KECCAK256 SWAP2 SWAP9 SWAP14 MSTORE CREATE2 NUMBER DUP3 DIV SWAP1 CALLVALUE 0xc2 0xc8 JUMPI DIFFICULTY PUSH12 0xCE5279872F87DC8668254901 CALLVALUE 0xaa PUSH8 0x7822002900000000 "
			}
		}
	},
	"sourceTreeHashHex": "0x18dc5b5a0e813c17e49936d2f2f7c07c51f050c09ba5e7206f17c855f23f4b6a",
	"compiler": {
		"name": "solc",
		"version": "0.4.26+commit.4563c3fc",
		"settings": {
			"remappings": [],
			"optimizer": {
				"enabled": false
			},
			"outputSelection": {
				"*": {
					"*": [
						"abi",
						"devdoc",
						"evm.bytecode.object",
						"evm.bytecode.sourceMap",
						"evm.deployedBytecode.object",
						"evm.deployedBytecode.sourceMap"
					]
				}
			}
		}
	},
	"chains": {}
}